:100000000C94A3010C94CB010C94CB010C94CB0168
:100010000C94CB010C94CB010C94CB010C94CB0130
:100020000C94CB010C94CB010C948D050C94FF0522
:100030000C94CB010C94CB010C94CB010C94CB0110
:100040000C94CB010C94CB010C94CB010C94CB0100
:100050000C94CB010C94CB010C94CB010C94F709BC
:100060000C94CB010C94CB010C94CB010C94CB01E0
:100070000C94CB010C94CB010C94CB010C94CB01D0
:100080000C94CB010C94CB010C94CB010C94CB01C0
:100090000C94CB010C94CB010C94CB010C94CB01B0
:1000A0000C94CB010C94010B0C94CB013003330363
:1000B000220326032C0354035403540337033B0346
:1000C0003F034503490354034F03000000000000B1
:1000D000000000000000000000002A002B002800A3
:1000E0000000000000000000000000000000000010
:1000F0000000000000000000000000000000000000
:10010000000000000000000000002C001E0234026D
:1001100020022102220224023400260227022502A4
:100120002E0236002D003700380027001E001F0069
:100130002000210022002300240025002600330295
:10014000330036022E00370238021F020402050275
:1001500006020702080209020A020B020C020D0243
:100160000E020F02100211021202130214021502F3
:1001700016021702180219021A021B021C021D02A3
:100180002F003100300023022D023500040005004D
:1001900006000700080009000A000B000C000D0013
:1001A0000E000F00100011001200130014001500C3
:1001B00016001700180019001A001B001C001D0073
:1001C0002F0231023002350200000000000023003F
:1001D000260029002C002F0000000000240027002A
:1001E0002A002D0030000000000200090F0000036B
:1001F0000401000C000000000000000000000000EE
:100200000000000000080B000202020100090400C7
:100210000001020200000524001001052401010173
:10022000042402060524060001070581031000408E
:1002300009040100020A0000000705020240000054
:1002400007058302400000040309044172647569D4
:100250006E6F204C4C430041726475696E6F204D87
:100260006963726F001201000200000040412337F1
:100270008000010102030112010002EF020140416E
:1002800023378000010102030105010980A10185D6
:1002900005150026FF00190029FF9501750881004A
:1002A000C005010906A1018502050719E029E71526
:1002B000002501750195088102050C950175081549
:1002C0000026FF00190029FF810005079506750823
:1002D000150026E700190029E78100C0050C090177
:1002E000A1018504150026FF0319002AFF039504C8
:1002F00075108100C00408020110408040102040A9
:10030000804080080204018040201002011080100B
:100310002040402000000000250028002B002E0077
:10032000310004040404040304050202020204036D
:10033000020202020606060606060404020202047F
:100340000400C217B41711241FBECFEFDAE0DEBFDE
:10035000CDBF11E0A0E0B1E0ECE4F9E302C005900C
:100360000D92A635B107D9F723E0A6E5B1E001C0AB
:100370001D92A032B207E1F711E0C2EAD1E004C059
:100380002197FE010E94D018C13AD107C9F70E94F7
:100390001B0E0C94991C0C94000040918D015091FF
:1003A0008E0120918B0130918C0142175307B4F4D8
:1003B0009091E8009570E1F39091E80092FD19C0EA
:1003C0008093F10080918D0190918E0101968F7341
:1003D0009927892B19F48EEF8093E80080918D0185
:1003E00090918E01019690938E0180938D0181E012
:1003F000089580E00895CF92DF92EF92FF920F93DD
:100400001F93CF93DF931F92CDB7DEB7182F062F20
:10041000E42E862F880F8E5F99830E94CD0183E0A2
:100420000E94CD01F12EC12E9981D92E8C2D8F19CC
:10043000801798F4F601E7FE02C0849101C0808124
:100440000E94CD01182F80E00E94CD018123FFEF93
:10045000CF1ADF0A8111EACF01C081E00F90DF914E
:10046000CF911F910F91FF90EF90DF90CF90089563
:10047000DF92EF92FF920F931F93CF93DF93D82ECB
:100480008A017B01E40EF51EEB01CE15DF0571F04C
:10049000D7FE03C0FE01849101C088810E94CD0176
:1004A00021968111F2CF8FEF9FEF01C0C801DF913C
:1004B000CF911F910F91FF90EF90DF9008956150C1
:1004C00030F02091F100FC0120830196F8CF289AAA
:1004D00084E6809390010895CF92DF92EF92FF928D
:1004E0000F931F93CF93DF936C017A018B01C0E0D0
:1004F000D0E0CE15DF0589F0D8016D918D01D601D0
:10050000ED91FC910190F081E02DC6010995892BB8
:1005100011F47E0102C02196ECCFC701DF91CF918B
:100520001F910F91FF90EF90DF90CF9008958091F1
:10053000820181110DC082E080937E0184E080936E
:100540007F01109281011092800181E080938201ED
:100550008EE791E008950F931F93CF93DF931F923F
:10056000CDB7DEB782E0898342E450E065E072E017
:1005700080E80E9438020E949702DC0112960D91D9
:100580001C9113970115110569F0D801ED91FC91AB
:100590000280F381E02DBE016F5F7F4FC801099596
:1005A00097FF07C089810F90DF91CF911F910F9125
:1005B0000895F80100851185E5CFCF93DF931F9251
:1005C000CDB7DEB76983DC01ED91FC910280F38148
:1005D000E02D41E050E0BE016F5F7F4F09950F9025
:1005E000DF91CF91089583E08093E9008091F2003C
:1005F000882319F08AE38093E8000895FC0184853C
:10060000958597FD0BC09FB7F89482E08093E90031
:100610008091F2009FBF90E0019608959FB7F894F3
:1006200082E08093E9008091F2009FBF90E00895FE
:1006300090E0FC013197EF30F105B0F5EA5AFF4F39
:100640000C94D018809180008F7703C08091800037
:100650008F7D80938000089580918000877FF9CFFF
:1006600084B58F7702C084B58F7D84BD0895809155
:1006700090008F7707C0809190008F7D03C080919C
:100680009000877F8093900008958091C0008F77BD
:1006900003C08091C0008F7D8093C0000895809139
:1006A000C200877F8093C2000895DC01FB0112968F
:1006B0008C91129790E02481358182179307D1F4B1
:1006C00091818081813A31F481E0913091F09330D1
:1006D00089F411C0813271F49B3021F482811F961C
:1006E0008C9305C09A3031F4828150968C9381E0CE
:1006F0000895089580E00895DC01FB0188E480837B
:1007000089E4818384E482831D969C911D979F7068
:100710009F5B93831D968D919C911E9724E09695E7
:1007200087952A95E1F78F708F5B848385E0089524
:10073000EF92FF920F931F93CF93DF93FB012081E2
:10074000213851F52381223239F5DC0112962C91A2
:1007500030E04481558142175307F1F4EC010B85D9
:100760001C85E12CF12C0115110591F0F801448153
:1007700055816281738180E80E9438028F3FFFEFCC
:100780009F0769F0E80EF91ED8010D911C91EBCF7F
:1007900081E08F87C70105C080E090E002C08FEF45
:1007A0009FEFDF91CF911F910F91FF90EF900895F0
:1007B000CF93DF93CDB7DEB769970FB6F894DEBF5E
:1007C0000FBECDBFFC01DB018C918F5F8C93BE010E
:1007D0006F5F7F4F89E1DB011D928A95E9F729E080
:1007E000298384E08A8391E09D8383E08E832A8736
:1007F00021E22B879C879D879F8722E2288B27E019
:100800002B8B25E02C8B8E8B20E430E0388F2F8BC8
:10081000998F82818B8395858685998B8A8B83813D
:1008200080688D8B49E150E080E00E943802699633
:100830000FB6F894DEBF0FBECDBFDF91CF91089504
:10084000FC0182818F5BFB01808381E00895FC01C4
:1008500034969C01245F3F4F80E090E0408141113D
:1008600001961192E217F307C9F70895CF93DF932A
:10087000DC0150E2560F5830D0F414966C91149766
:10088000442351F021E030E001C0220F5A95EAF7ED
:10089000262B14962C9337C081E090E001C0880F7E
:1008A0005A95EAF78095862314968C932CC0FC0108
:1008B00036964423B9F00C96EF012991261719F1C9
:1008C000C817D907D1F780E090E02191211105C028
:1008D000A80FB91F16966C9316C001968630910525
:1008E000A1F70EC080E090E02191261305C0A80F6B
:1008F000B91F16961C9207C0019686309105A1F784
:1009000080E090E002C081E090E0DF91CF91089517
:10091000CF92DF92FF920F931F93CF93DF938C01BF
:10092000F42EE62FF0E0EE0FFF1FE653FF4FC590C9
:10093000D490D801ED91FC910084F185E02D6C2DCF
:10094000C8010995EC01892B11F4F11070C0D0FE9B
:100950000CC0D801ED91FC910084F185E02D4F2D64
:1009600060EEC8010995C82BD92BD1FE0CC0D80167
:10097000ED91FC910084F185E02D4F2D61EEC801D1
:100980000995C82BD92BD2FE0CC0D801ED91FC9152
:100990000084F185E02D4F2D62EEC8010995C82B2A
:1009A000D92BD3FE0CC0D801ED91FC910084F185C8
:1009B000E02D4F2D63EEC8010995C82BD92BD4FE2D
:1009C0000CC0D801ED91FC910084F185E02D4F2DF4
:1009D00064EEC8010995C82BD92BD5FE0CC0D801EF
:1009E000ED91FC910084F185E02D4F2D65EEC8015D
:1009F0000995C82BD92BD6FE0CC0D801ED91FC91DE
:100A00000084F185E02D4F2D66EEC8010995C82BB5
:100A1000D92BD7FE0CC0D801ED91FC910084F18553
:100A2000E02D4F2D67EEC8010995C82BD92BCE01BB
:100A3000DF91CF911F910F91FF90DF90CF9008959C
:100A4000FF920F931F93CF93DF93EC01F62E41E0BB
:100A50000E9488048C01892BA9F0E881F981068025
:100A6000F781E02DCE01099540E06F2DCE010E9467
:100A70008804892B39F0E881F9810680F781E02D1F
:100A8000CE010995C801DF91CF911F910F91FF9081
:100A900008950E948D1C0F931F93CF93DF931F9295
:100AA000CDB7DEB78C01FC018485958597FF0EC01C
:100AB000CE0101960E94F10D019719F4298130E0D1
:100AC00002C02FEF3FEFF80135872487F8018485B6
:100AD00095850F90DF91CF911F910F910895CF933E
:100AE000DF931F92CDB7DEB7FC018485958597FD16
:100AF00005C02FEF3FEF358724870BC0CE0101964D
:100B00000E94F10D019719F4898190E002C08FEFE6
:100B10009FEF0F90DF91CF9108951F920F920FB624
:100B20000F9211248F939F938091E1009091E100A7
:100B3000937F9093E10083FF0FC01092E90091E052
:100B40009093EB001092EC0092E39093ED001092E2
:100B5000910198E09093F00082FF20C093E0909381
:100B6000E9009091F200992319F09AE39093E8003C
:100B700090918F01992339F090918F01915090932A
:100B80008F01992389F190919001992339F09091E7
:100B90009001915090939001992341F184FF10C0EE
:100BA0008091E2008E7E81608093E2008091E1007E
:100BB0008F7E8093E100809157018E7E806111C00D
:100BC00080FF16C08091E2008E7E80618093E200FB
:100BD0008091E1008E7E8093E100809157018E7EAE
:100BE00081608093570104C05D98CDCF2898D6CFFF
:100BF0009F918F910F900FBE0F901F9018951F928D
:100C00000F920FB60F921124CF92DF92EF92FF92C4
:100C10000F931F932F933F934F935F936F937F9304
:100C20008F939F93AF93BF93EF93FF93CF93DF93F4
:100C3000CDB7DEB76C97DEBFCDBF1092E9008091D3
:100C4000E80083FFFAC168E0CE0145960E945F028A
:100C500082EF8093E8008D8987FF05C09091E800BE
:100C600090FFFCCF03C09EEF9093E800982F907602
:100C700009F0C6C09E892F89188D91110CC080384B
:100C800029F4809158018093F10002C01092F10084
:100C90001092F10047C1422F50E0512B913051F496
:100CA000811140C14130510509F03CC1809158018A
:100CB0008D7F0BC0933061F4811134C141305105F7
:100CC00009F030C1809158018260809358012AC197
:100CD000953041F48091E80080FFFCCF206820939C
:100CE000E30020C1963009F05FC0EB8CFC8C1092C1
:100CF000E90010928E0110928D01123091F5109240
:100D00008C0110928B010E94AB0299E0BE016F5FD3
:100D10007F4FDB01E92F1D92EA95E9F799831A834A
:100D200091E09E8390EA98879AEF998720918D01B0
:100D300030918E01275F3F4F3C832B838D83109230
:100D4000E90010928E0110928D01F0928C01E092D8
:100D50008B0149E050E080E00E9438020E94AB0223
:100D6000E1C0F0928C01E0928B010E949702DC01BD
:100D70001296ED90FC901397E114F10409F4C0C0B1
:100D8000D701ED91FC910480F581E02DBE016B5EF1
:100D90007F4FC7010995009719F00CF0C3C0C6C07A
:100DA000F701E084F184E8CF973009F4BFC09830B0
:100DB00021F481E08093F100B5C0993009F0B2C010
:100DC000837009F0B3C0E3E0F1E081E021E036E3B5
:100DD0009081992361F08093E9002093EB00919139
:100DE0009093EC003093ED008F5F873089F78EE7AA
:100DF0008093EA001092EA008F898093910192C05B
:100E00008B8D9C8D1092E90010928E0110928D01B5
:100E100090938C0180938B01898D811156C08E89AE
:100E20009D89913A59F4813209F080C047E050E041
:100E30006DE071E080E00E94380274C0913209F0E8
:100E400075C0833289F4888D90E0982F88272F8988
:100E5000822BA0E0B0E08093090190930A01A09357
:100E60000B01B0930C015EC0803269F48091E80000
:100E700082FFFCCF67E08DE091E00E945F028BEF84
:100E80008093E80006C0823209F04CC08F898093BD
:100E9000140180915601882319F0EEEFFAE002C0A8
:100EA000E0E0F8E080910D0190910E01A0910F011A
:100EB000B0911001803B9440A105B10509F088C0B4
:100EC0008091140180FFA0C083C00E949702DC01C2
:100ED00012960D911C9113970115110539F1D80146
:100EE000ED91FC910190F081E02DBE016B5E7F4F92
:100EF000C8010995811116C0F80100851185ECCF54
:100F00001130C1F0133091F48F89882309F455C052
:100F10008230E9F440E86DE087E592E00E94FB0151
:100F2000882321F08EEF8093E80087C081E28093D0
:100F3000EB0083C08B8D9C8D089711F410938A0170
:100F400080918A01811136C065E672E038C0813037
:100F500029F440E86BE08BE492E0E0CF833031F796
:100F60000E949702DC011296ED90FC9013978E017F
:100F70000F5F1F4F6801E114F10479F0D701ED9183
:100F8000FC910680F781E02DB801C7010995080F93
:100F9000111DF701E084F184EECFD8011C92F60117
:100FA00001900020E9F73197BF016C197D0940E0FD
:100FB000C601B4CF67E772E002C067E472E0611572
:100FC000710509F4B3CFFB01449150E080E833CFC1
:100FD0000FB6F894A89580916000886180936000B6
:100FE000109260000FBEA895EE3F2AE0F20739F09C
:100FF0008091FE0A9091FF0A9183808393CF109293
:10100000FF0A1092FE0A8ECFEE3F8AE0F80731F019
:10101000808191819093FF0A8093FE0A87E797E78A
:10102000918380839BE088E10FB6F894A895809324
:1010300060000FBE9093600075CF6C960FB6F89469
:10104000DEBF0FBECDBFDF91CF91FF91EF91BF917A
:10105000AF919F918F917F916F915F914F913F9150
:101060002F911F910F91FF90EF90DF90CF900F90F5
:101070000FBE0F901F9018951F93CF93DF93282FCB
:1010800030E0F901EA51FE4F8491F901EB50FD4F38
:10109000D491F901EE5DFC4FC491CC23C9F0162F19
:1010A00081110E941803EC2FF0E0EE0FFF1FEC5EA1
:1010B000FC4FA591B4918FB7F894111105C09C9184
:1010C000ED2FE095E92302C0EC91ED2BEC938FBF5F
:1010D000DF91CF911F910895CF93DF9390E0FC01B2
:1010E000EB50FD4F2491FC01EE5DFC4F8491882371
:1010F00061F190E0880F991FFC01E852FE4FC59105
:10110000D491FC01EC5EFC4FA591B491611109C032
:101110009FB7F8948881209582238883EC912E23B1
:101120000BC0623061F49FB7F8943881822F8095AC
:1011300083238883EC912E2B2C939FBF06C08FB7FF
:10114000F894E8812E2B28838FBFDF91CF910895EB
:101150003FB7F89480917A0190917B01A0917C0136
:10116000B0917D0126B5A89B05C02F3F19F00196CF
:10117000A11DB11D3FBFBA2FA92F982F8827820F1D
:10118000911DA11DB11DBC01CD0142E0660F771F6D
:10119000881F991F4A95D1F708958F929F92AF9219
:1011A000BF92CF92DF92EF92FF926B017C010E947F
:1011B000A8084B015C01C114D104E104F104F1F071
:1011C0000E94A808DC01CB0188199909AA09BB096A
:1011D000883E9340A105B10570F321E0C21AD10801
:1011E000E108F10888EE880E83E0981EA11CB11C6E
:1011F000C114D104E104F10419F7DDCFFF90EF90A1
:10120000DF90CF90BF90AF909F908F9008958F9276
:101210009F92AF92BF92CF92DF92EF92FF920F9385
:101220001F93CF93DF9300D01F92CDB7DEB7382F37
:101230008B0180919101811103C08FEF9FEF7DC0E1
:101240008091570180FF05C08091E000826080930B
:10125000E0004A018AEFF82E832F8770E82E9FE383
:10126000C92E832F8072B82E2AE3D22E832F80744A
:10127000A82E8114910409F457C08FB7F894E09216
:10128000E9009091E80095FF05C09091F2002C2DA7
:10129000291B01C020E08FBF211110C0FA94FF204C
:1012A00061F261E070E080E090E039834A835B8323
:1012B0000E94CD0839814A815B81DBCF822F90E08B
:1012C000881699060CF4282D6FB7F894E092E9007F
:1012D0008091E80085FF26C0822F90E0881A990A45
:1012E000BB2029F02150A8F01092F100FBCFF801AB
:1012F00037FF07C0215058F074917093F100319678
:10130000F9CF215020F071917093F100FACF080FBE
:10131000191F8091E80085FF0DC08114910411F41C
:10132000A11008C06FBFA5CF5D9A84E680938F019E
:10133000CA0103C0D092E800F5CF0F900F900F9034
:10134000DF91CF911F910F91FF90EF90DF90CF90A1
:10135000BF90AF909F908F900895CF93DF93EC0153
:1013600080911401882331F083E00E940709181648
:10137000190634F081E090E09B838A8380E090E05E
:10138000DF91CF910895AF92BF92CF92DF92EF920B
:10139000FF920F931F93CF93DF931F92CDB7DEB7CA
:1013A0007C0169836A01590141E050E0BE016F5F31
:1013B0007F4FFC0183810E9407098C0197FD0BC0C0
:1013C000F7018381A501B60180640E94070997FD9A
:1013D00002C0800F911F0F90DF91CF911F910F914D
:1013E000FF90EF90DF90CF90BF90AF9008951F9245
:1013F0000F920FB60F9211242F933F938F939F93C9
:10140000AF93BF938091760190917701A09178017D
:10141000B09179013091750123E0230F2D3720F42D
:101420000196A11DB11D05C026E8230F0296A11D3E
:10143000B11D209375018093760190937701A0935D
:101440007801B093790180917A0190917B01A0910C
:101450007C01B0917D010196A11DB11D80937A019F
:1014600090937B01A0937C01B0937D01BF91AF91DC
:101470009F918F913F912F910F900FBE0F901F90D2
:101480001895FC01A385B485109719F474876387B8
:1014900009C08D919C911197009711F0DC01F9CF53
:1014A0006D937C9325853685DB0114968D919C91F7
:1014B0001597820F931F96878587089580916D01F8
:1014C00081116BC081E0809360018093610126E609
:1014D00031E0309363012093620110926501109214
:1014E00064012FE131E030935D0120935C011092A3
:1014F00068011092670110926A011092690180934D
:101500006B0180936C0181EC809366010E949702CD
:10151000FC0121818091600190E0820F911D08976C
:1015200024F081E080936D0138C0A281B3811097CF
:1015300029F48CE591E0938382830EC018968D91F7
:101540009C911997009711F0DC01F8CF8CE591E0A0
:1015500019969C938E931897808180935E01818168
:1015600080935F01908180916101890F808380E089
:10157000909160018917A8F6A0916201B091630172
:10158000A80FB11D9C91A181B0E0AE5FBE4F9C93AE
:1015900091819F5F91838F5FEBCF8CE591E0089500
:1015A0000F931F93CF93DF93EB018A010E945E0A92
:1015B0009801AE0165E0DF91CF911F910F910C94DE
:1015C000C309CF93DF93EC010E945E0AAE014C5F2A
:1015D0005F4F28E030E062E0DF91CF910C94C309C7
:1015E0000F931F93CF93DF93EB018A010E945E0A52
:1015F0009801AE0164E0DF91CF911F910F910C949F
:10160000C3091F920F920FB60F9211242F933F938D
:101610004F935F936F937F938F939F93AF93BF93FA
:10162000CF93DF93EF93FF9320910B0230E0F9010A
:10163000EA51FE4F8491F901EB50FD4FD491F9012D
:10164000EE5DFC4FC491CC23A1F081110E941803E0
:10165000EC2FF0E0EE0FFF1FE653FE4FA591B49183
:10166000EC91ED2331E020E009F430E0832F922F5C
:1016700002C080E090E020910F02309110022F5FB5
:101680003F4F3093100220930F0220910E02253617
:1016900018F026E020930A0220910A022430D9F1A2
:1016A00028F4223069F02330D9F060C0253009F4E5
:1016B00053C0263009F05AC021E02093DB0253C00A
:1016C000009709F053C020910F0230911002243688
:1016D000310508F443C01092DB0210920E021DC0C7
:1016E0008130910509F042C0E0910E0221E02E0FF9
:1016F00020930E02F0E020910F0230911002EE0FC5
:10170000FF1FE65FFD4F3087278310921002109273
:101710000F0224E029C00097B9F4E0910E0221E005
:101720002E0F20930E02F0E020910F023091100254
:10173000EE0FFF1FE65FFD4F3087278310921002E8
:1017400010920F0223E010C020910F02309110027E
:101750002536310558F007C0009741F41092100269
:1017600010920F0203C025E020930A0220910D027F
:101770002223B9F0892B51F480910C02882321F0A7
:1017800080910C0261E009C02D9A0BC080910C027F
:10179000882331F080910C0260E00E943C0801C077
:1017A0002D98FF91EF91DF91CF91BF91AF919F91D4
:1017B0008F917F916F915F914F913F912F910F90FA
:1017C0000FBE0F901F901895CF92DF92EF92FF926D
:1017D000CF93DF93EC01072E000C880B990B0E942E
:1017E000431A6B017C0120E030E040E45FE30E949B
:1017F000F31A20E030E048E452E40E9499190E9474
:101800000B1AC617D707D4F020E030E040EA5FE3B8
:10181000C701B6010E94F31A20E030E048E452E428
:101820000E94991920E030E040E85FE30E94281907
:101830000E940B1A21E06C177D070CF420E0822F28
:1018400090E0DF91CF91FF90EF90DF90CF900895DF
:101850000F931F93CF93DF93CDB7DEB729970FB6C2
:10186000F894DEBF0FBECDBF0E94A8080091EA0227
:101870001091EB022091EC023091ED02DC01CB01E2
:10188000801B910BA20BB30B8C329140A105B105CB
:1018900058F3F8948091E0029091E1029A83898351
:1018A000E091E402F091E502DF01119680818987E1
:1018B0009091DC02E091EE02F091EF028091F00253
:1018C000992309F42EC09081982B98879081809558
:1018D00089238F838F818C8388E08B8358856F81E8
:1018E00049853B812C8189819A81508347FD252F31
:1018F0003A952083262F39F0441F00C000006083F2
:10190000000000C0F2CF38E04D91608300000197E5
:1019100061F7F093EF02E093EE0249873B832C835B
:1019200038C09081982B98879081809589238F83E8
:101930008F818E8388E08D8358856F8149853D81B5
:101940002E8189819A81508347FD252F00C000C0D8
:10195000208300C000C000C000C000C06083000041
:10196000262F3A9541F0441F000000C000C000C07F
:1019700000C000C0E8CF38E04D9100C0608300C0D7
:10198000019709F7F093EF02E093EE0249873D8358
:101990002E839A83898378940E94A8086093EA0230
:1019A0007093EB028093EC029093ED0229960FB6B0
:1019B000F894DEBF0FBECDBFDF91CF911F910F9185
:1019C0000895E0E0F2E0228133812817390711F40D
:1019D00013821282329622E0E830F207A1F7E091FA
:1019E0000002F09101020190F081E02D48E050E00A
:1019F00062E072E080E092E00994E2E0F2E020E050
:101A000030E0419151912F5F3F4F452B41F4220F20
:101A1000331FF901E050FE4F9183808303C02430CF
:101A2000310579F7E0910002F09101020190F08117
:101A3000E02D48E050E062E072E080E092E009943E
:101A40001F93CF93DF93182FE091F401F091F501EC
:101A50000084F185E02D41E0682F84EF91E0099545
:101A6000EC01892B11F1E091F401F091F501068070
:101A7000F781E02D84EF91E00995E091F401F09178
:101A8000F5010084F185E02D40E0612F84EF91E0C5
:101A90000995892B51F0E091F401F091F501068050
:101AA000F781E02D84EF91E00995CE01DF91CF9190
:101AB0001F910895CF93DF93EC010E94FD0CCE019E
:101AC000DF91CF910C94E10CCF93DF931F92CDB7B0
:101AD000DEB71982E091F201F091F3010190F081FB
:101AE000E02D41E050E0BE016F5F7F4F82EF91E05B
:101AF00009950F90DF91CF9108958F929F92AF92A9
:101B0000BF92CF92DF92EF92FF920F931F93CF93EA
:101B1000DF93FC01C081D18120919E0130919F0112
:101B2000C217D3070CF04BC09E01220F331FE09168
:101B30009C01F0919D01E20FF31F80809180C170A4
:101B4000DD27F1E0CF27209719F404E610E002C06A
:101B50000CE91FEF7A015B016C01040F151FB8013E
:101B6000C4010E94E40B892B99F40E0D1F1DB801CE
:101B7000C4010E94E40B892B71F4B8016E0D7F1D26
:101B8000C4010E94E40B892BE9F023E030E005C09A
:101B900021E030E002C022E030E0F5018081918157
:101BA0000196821793073CF0F50111821082F6012D
:101BB00080819181019691838083CE0105C081E06F
:101BC00090E002C08FEF9FEFDF91CF911F910F91B7
:101BD000FF90EF90DF90CF90BF90AF909F908F904D
:101BE0000895FC0180919101811103C08FEF9FEF57
:101BF00008959FB7F89482E08093E9002091F20065
:101C000030E01216130614F421E030E021153105FE
:101C100059F0289A84E6809390018091F1008083A6
:101C20008091F200882319F09FBFC90108958BE6C7
:101C30008093E800F9CFCF93DF93CDB7DEB72D9730
:101C40000FB6F894DEBF0FBECDBF789484B5826026
:101C500084BD84B5816084BD85B5826085BD85B550
:101C6000816085BD80916E00816080936E001092CE
:101C70008100809181008260809381008091810049
:101C800081608093810080918000816080938000DA
:101C90008091910082608093910080919100816099
:101CA000809391008091900081608093900080915A
:101CB000C10084608093C1008091C10082608093E4
:101CC000C1008091C10081608093C1008091C300F8
:101CD00081608093C3008091C00082608093C000C7
:101CE0008091C20081608093C20080917A008460FC
:101CF00080937A0080917A00826080937A0080914C
:101D00007A00816080937A0080917A008068809365
:101D10007A0010929101109258011092570180910F
:101D2000D70081608093D70080EA8093D80089B57E
:101D3000806189BD89B5826089BD09B400FEFDCF8F
:101D400061E070E080E090E00E94CD088091D800D2
:101D50008F7C80618093D8008091E000807F8093A9
:101D6000E0008091E1008E7E8093E1008DE0809321
:101D7000E200559A209A5D982898EEEFFFE785914A
:101D800094918B3F9C4D19F481E0809356018FEF25
:101D90009FEF9093AF018093AE0162E370E080E02B
:101DA00090E00E94CD0888E0E2E0F2E0DF011D92C1
:101DB0008A95E9F7E0910002F09101020190F0812B
:101DC000E02D48E050E062E072E080E092E00995AA
:101DD00062E370E080E090E00E94CD080E94640D14
:101DE00062E370E080E090E00E94CD08E091F401B1
:101DF000F091F5010480F581E02D84EF91E00995E3
:101E0000E091F401F091F5010680F781E02D84EF77
:101E100091E0099562E370E080E090E00E94CD08D7
:101E20008091E20287FD08C061E00E946C0860E0DA
:101E30008091E2020E943C0881E08093DD02609183
:101E4000E302693221F12091E4023091E502615010
:101E500031F070E08FEF98E20E94BC1802C060E0A1
:101E600070E0F9014091E0025091E102CF01821B44
:101E7000930B8417950740F44081469FC001479F0C
:101E8000900D11249193EECF89E28093E302F894B0
:101E90001092C00081E08093C1001092C2001092A5
:101EA000C3001092C40083E08093BF0080E280935F
:101EB000D1001092BF001092BF001092BE0084E0CB
:101EC00080937200789482E080930A0210920E024E
:101ED00080910B0260E00E946C0862E370E080E099
:101EE00090E00E94CD0844244A94542C320190E2A0
:101EF000292E312CE1E1F2E0F0939D01E0939C0169
:101F000080910E0290E090939F0180939E018091BA
:101F1000DB0290E09093A1018093A00180910A02DE
:101F2000853009F083C28091130290911402885881
:101F300091098D35910588F480910E02843041F429
:101F400080911502909116028097479708F434C348
:101F500080910E02843408F0DFC180910E028A3134
:101F600008F44FC08091110290911202843F914079
:101F700068F410929B0110929A014092960150923F
:101F80009701609298017092990159C08091130253
:101F90009091140285974B97A0F5E7E1F2E082E07B
:101FA00090E0C12CD12C7601AC014F5F5F4F2091A6
:101FB0000E0230E0421753075CF4DF0112972D91B7
:101FC0003C91275031092730310508F41AC3CA0162
:101FD00001979595879590939B0180939A010C9713
:101FE0002CF410929B0110929A010BC0C0929601A2
:101FF000D0929701E0929801F092990184E090E0EC
:1020000028C480910E028A3108F44CC080911102DC
:10201000909112028032934008F4ABCF809113026A
:1020200090911402C697869708F408C33BC0C092EB
:102030009601D0929701E0929801F09299018BE07D
:1020400090E007C420813181255231092B313105BF
:1020500008F004C3CC0CDD1CEE1CFF1C6894C0F817
:1020600002963496AC014F5F5F4F20910E0230E034
:102070004217530754F4DF0112972D913C912C50D5
:1020800031092B303105F0F2CA01019795958795FA
:1020900090939B0180939A010C974CF610929B01B0
:1020A00010929A0180910E02823208F44DC0809104
:1020B0001302909114020697079708F045C0E7E1D4
:1020C000F2E082E090E0C12CD12C76019C012F5FE0
:1020D0003F4F40910E0250E024173507E4F4DF0132
:1020E00012974D915C9111974E515109473151050D
:1020F00008F0C1C2CC0CDD1CEE1CFF1C6894C0F8BB
:10210000408151813496435051094530510510F4B6
:102110000296DCCFC90101979595879590939B0115
:1021200080939A0140972CF410929B0110929A018F
:102130000BC0C0929601D0929701E0929801F09264
:1021400099018CE090E085C31C821B8281E090E0C5
:102150009A83898380910E028D3008F46BC049E721
:1021600053E0BE016D5F7F4FCE0101960E947D0D51
:10217000892B09F05FC049E753E0BE016D5F7F4FD7
:10218000CE0101960E947D0D019709F053C049E7E9
:1021900053E0BE016D5F7F4FCE0101960E947D0D21
:1021A000892B09F047C0812C912C540100E010E0EC
:1021B00080910E0290E029813A81281739075CF559
:1021C00049E753E0BE016D5F7F4FCE0101960E944B
:1021D0007D0D7C0149E753E0BE016D5F7F4FCE016D
:1021E00001960E947D0DB1E0EB16F10449F4892BB4
:1021F00009F5880C991CAA1CBB1C689480F808C0BF
:10220000EF28C1F40197B1F4880C991CAA1CBB1CDF
:102210000F5F1F4FCDCF10939B0100939A018092C7
:10222000960190929701A0929801B092990181E055
:1022300090E00FC31C821B8281E090E09A83898327
:1022400080919E0190919F01181619060CF059C0BB
:10225000E0919C01F0919D0182E090E09A83898356
:102260008281938189974E9708F04BC003E0C02E7E
:10227000D12CDA82C982848195810B970A9708F064
:1022800040C04CEB51E0BE016D5F7F4FCE01019627
:102290000E947D0D892BA9F54CEB51E0BE016D5FCD
:1022A0007F4FCE0101960E947D0D019751F5812C43
:1022B000912C540100E010E029813A8180919E0127
:1022C00090919F01281739070CF018C24CEB51E090
:1022D000BE016D5F7F4FCE0101960E947D0D6C01A6
:1022E0000330110509F0D4C14CEB51E0BE016D5F24
:1022F0007F4FCE0101960E947D0DC816D90609F4C4
:10230000C7C1E0919C01F0919D0182819381C697A4
:10231000869708F402C22AC3809115029091160292
:10232000825491098E9708F018CE80E090E040E04A
:1023300050E0BA01FC01E95EFD4F20813181295056
:1023400031092930310508F008CEFC01E75EFD4F68
:1023500020813181275131092231310508F044C1F2
:10236000440F551F661F771F416004968038910502
:1023700009F730929B0120929A0140939601509365
:102380009701609398017093990123E030E03093B6
:1023900093012093920182E080930A0210920E0230
:1023A0008091960190919701A0919801B091990127
:1023B0008F3F9F4FAF4FBF4F81F480915901909154
:1023C0005A01092E000CAA0BBB0B80939601909327
:1023D0009701A0939801B0939901809196019091F3
:1023E000970190935A01809359018D3F32E09307F2
:1023F00009F46FC20CF432C28D3CB2E39B0709F4BE
:1024000091C20CF058C2853FFAE09F0709F481C2DF
:10241000873E18E1910709F047C289EE90E00E94DB
:102420005A0D82E080930A0210920E0266E970E073
:1024300080E090E00E94CD08809100019091010120
:10244000C2975CF4F8948091E4029091E502892BA4
:1024500011F00E94280C78941AC04091E00250912B
:10246000E10260E070E08091E4029091E5020E9458
:10247000921C8091E4029091E502892B11F00E9458
:10248000280C82E390E0909301018093000182EA9E
:1024900091E00E94FE0218161906ECF482EA91E01F
:1024A0000E946F05082E000C990B889797FF02C0B9
:1024B00080E090E033E0880F991F3A95E1F78F3F75
:1024C000910519F014F08FEF90E080935B0110926A
:1024D00001011092000180915B01482F50E060E003
:1024E00070E0BA01552744278095482BCB01AA27D5
:1024F000BB27242FF82EBC01A12CB12CA0E0B0E00A
:1025000040E050E08091DE029091DF0248175907C9
:10251000C0F58091E302882359F0869F8001879F50
:10252000100D1124E12E289FC0011124392F02C063
:10253000322FEF2C1091E9020091E6028091E40223
:102540009091E502101303C08A0F9B1F06C08A0DED
:102550009B1DFC01E10FF11D10821091E6026C0140
:10256000C10ED11CF601E0821091E7026C01C10E90
:10257000D11CF60110821091E802810F911DFC011F
:1025800030834F5F5F4F1396F4E0AF0EB11C4831BC
:10259000510509F0B7CF809100019091010101969A
:1025A000909301018093000180E090E0892B09F471
:1025B000A1CC0E9400009BCC809117029091180240
:1025C0000997099708F0C4CC10929B0110929A01C8
:1025D00040929601509297016092980170929901F1
:1025E00083E0C82ED12CB8C4208131812650310916
:1025F0002730310508F0B1CC440F551F661F771FF7
:10260000B4CE20813181235131092F30310548F476
:10261000CC0CDD1CEE1CFF1C6894C0F802963496AE
:10262000C3CC208131812A5031092930310508F08D
:10263000E8CCCC0CDD1CEE1CFF1CF0CF8091150209
:1026400090911602C697869708F02CCDE9E1F2E04A
:1026500083E090E0C12CD12C760104CD2081318122
:102660002C5031092A30310508F01CCDCC0CDD1C72
:10267000EE1CFF1CF5CC4D915C914C5051094B3038
:10268000510508F061CDCC0CDD1CEE1CFF1C38CDD3
:102690004CEB51E0BE016D5F7F4FCE0101960E9471
:1026A0007D0D7C010330110569F44CEB51E0BE0156
:1026B0006D5F7F4FCE0101960E947D0DE816F906F1
:1026C00009F01FCEC114D10459F4EA94EF2809F09F
:1026D00018CE880C991CAA1CBB1C689480F80BC0EF
:1026E000CA94CD2809F00DCEEF2809F00ACE880C47
:1026F000991CAA1CBB1C0F5F1F4FDECD10939B01C2
:1027000000939A018092960190929701A09298016D
:10271000B092990182E090E09CC0848195814B97B2
:10272000459708F023C1DF0116967F0116ECE10EF4
:10273000F11C20E030E040E050E060E070E080E03C
:1027400090E0CD90DC90119719E0C11AD10818E003
:10275000C116D10408F00AC11296CD90DC901397EF
:1027600011E1C11AD1081DE0C116D10420F501E024
:102770000E94E11821601496AE15BF0511F7209351
:10278000960130939701409398015093990100E28C
:102790000E94FC18209394013093950185E090E00D
:1027A000909393018093920180E390E090939B013A
:1027B00080939A01F0CD1296CD90DC90139714E09F
:1027C000C11AD10815E0C116D10408F0CFC001E04C
:1027D0000E94E118D0CFA80142505109DA014D9171
:1027E0005C91495051094830510508F06DC1BC0158
:1027F0006F5F7F4FD8014D915C9147505109473031
:10280000510508F05EC3220F331F216002960C5F52
:102810001F4F40910E0250E0445051098417950714
:10282000D4F201979595879590939B0180939A0197
:102830008A970CF449C1C901330FAA0BBB0B8093D3
:10284000960190939701A0939801B093990189E024
:1028500090E090939301809392019DCD8736B8E9E3
:102860009B0709F458C08CF48737F8E89F0709F4F0
:102870005FC085371AE8910709F447C08D37924841
:1028800009F0CFCD82EE90E04AC085313AEE930751
:1028900009F45DC08F3F910509F43FC08733984C20
:1028A00009F0BFCD88E232C0873F984009F0B9CD2A
:1028B0008AEE90E0B4CD873938E6930721F1853967
:1028C000AAE69A07B9F1873A984509F0AACD81E5B9
:1028D0001DC081E88D83E091F201F091F301019038
:1028E000F081E02D41E050E0BE016B5F7F4F82EF51
:1028F00091E009950E94640D62E370E080E090E051
:102900000E94CD088ECD82E501C080E50E94200D99
:10291000F3CF8FE4FBCF89E2F9CF8DEC90E00E94FA
:102920005A0DEACF66E684EF91E00E942005E4CFDD
:102930008BE2ECCF8FE690E00E94FD0C6AE070E045
:1029400080E090E00E94CD088FE690E00CC080E728
:1029500090E00E94FD0C6AE070E080E090E00E9450
:10296000CD0880E790E00E94E10C5BCD80910E02E3
:10297000893370F18281938189579109833591055B
:1029800008F449C125C0D90112966D917C91139725
:10299000665171096131710508F069C1D701C6013D
:1029A000880F991FAA1FBB1F6C017D016894C0F896
:1029B0004E5F5F4F2C5F3F4F4B33510509F43AC1D7
:1029C000D9016D917C916A50710969307105D8F215
:1029D00080910E02823231F4828193810A970997A5
:1029E00008F455C1828193818957910983359105F6
:1029F000D0F480910E028132B0F084819581CA9723
:102A0000899788F49F012A5F3F4FC12CD12C760112
:102A100043E050E0D9016D917C916A5071096930B1
:102A2000710508F450C1828193818C549109C59736
:102A300078F480910E02843031F4848195818097FE
:102A4000479708F4A0C180910E02843408F082C137
:102A500080910E02863460F1828193810C970B97EE
:102A600008F4DAC125C0D90112966D917C911397B3
:102A70006E5171096731710508F004C2D701C601B2
:102A8000880F991FAA1FBB1F6C017D016894C0F8B5
:102A90004E5F5F4F2C5F3F4F4534510509F4D7C15E
:102AA000D9016D917C916C5071096B307105D8F230
:102AB00080910E02883540F082819381855891097A
:102AC0008B35910508F4EEC180910E028032E1F45D
:102AD0008281938106970697B8F48481958109973E
:102AE000099790F49F012A5F3F4FBF01625C7F4FBF
:102AF000C12CD12C7601D9014D915C9146505109E0
:102B00004630510508F4EAC1C0909E01D0909F0163
:102B1000D986C8869601263031050CF482CC8F0107
:102B20000A5F1F4F55ECC52E5DE9D52E5CE1E52E01
:102B300051E8F52E83E090E09F838E83D8016D915C
:102B40007C91F8013497A080B18080E090E00E94F1
:102B5000411A6A877B878C879D87B50180E090E06A
:102B60000E94411A4B015C012DEC3CEC4CE45FE30C
:102B70000E94F31A9B01AC016A857B858C859D853B
:102B80000E94941987FD19C02DEC3CEC4CE45FE3E6
:102B90006A857B858C859D850E94F31A9B01AC011B
:102BA000C501B4010E949419E82F880FFF0BEE278E
:102BB000FF0FEE1FFF27319602C0E0E0F0E0A70113
:102BC000960163E971E080E091E00E94AC186F012A
:102BD000FF0FEE08FF08C626D726E826F926EE8165
:102BE000FF813196FF83EE830E5F1F4F2885398565
:102BF000E217F30709F0A2CFC0929601D092970195
:102C0000E0929801F092990130929B0120929A01F2
:102C10008FEF9FEF1ECE84819581CA97899708F028
:102C2000D7CE9F012A5F3F4FC12CD12C760143E0C4
:102C300050E0C6CE9F012A583F4FD9012D913C91BB
:102C40002A5031092930310508F0C2CE2CE130E09C
:102C500030939B0120939A01C0929601D0929701E4
:102C6000E0929801F09299018AE090E0F2CDD901CA
:102C700012966D917C9113976650710967307105BA
:102C800008F0A6CECC0CDD1CEE1CFF1C91CE2091D2
:102C90000E02CF01820F911D820F911DDC01129750
:102CA0008D919C910A97099708F09CCE10929B01F8
:102CB00010929A0140929601509297016092980169
:102CC0007092990146C1D90112966D917C9113972A
:102CD000665171096131710568F5D701C601880F28
:102CE000991FAA1FBB1F6C017D016894C0F84E5F3D
:102CF0005F4F2C5F3F4F4332510509F08BCE9F0150
:102D00002A5B3F4FD9012D913C912A50310929303E
:102D1000310508F088CEE0E1F0E0F0939B01E0930C
:102D20009A01C0929601D0929701E0929801F09298
:102D300099010FC1D90112966D917C91139766503C
:102D400071096730710508F06ECECC0CDD1CEE1CED
:102D5000FF1CCDCF8481958189549109C39708F0D8
:102D600077CE9F012A5F3F4FBF016A577F4FC12C2B
:102D7000D12C7601D9014D915C91495051094930CE
:102D80005105A0F065CE868197810997099708F0D3
:102D90005ACE10929B0110929A0140929601509245
:102DA00097016092980170929901DBC0D901129647
:102DB0004D915C9113974651510941315105E0F411
:102DC000D701C601880F991FAA1FBB1F6C017D0187
:102DD0006894C0F82C5F3F4F2617370759F630929A
:102DE0009B0120929A01C0929601D0929701E092A5
:102DF0009801F0929901B5C0D90112964D915C915C
:102E00001397465051094730510508F021CECC0C9C
:102E1000DD1CEE1CFF1CDECF84819581099709978C
:102E200008F046CE868197818C974F9708F040CE68
:102E30008085918589974D9708F03ACE9F01265F4E
:102E40003F4FC12CD12C760145E050E029CE9F01A7
:102E500026573F4FD9012D913C912C5031092B30F1
:102E6000310508F025CE30929B0120929A01C09244
:102E70009601D0929701E0929801F092990188E032
:102E800090E0E7CCD90112966D917C91139769502F
:102E900071096930710508F00BCECC0CDD1CEE1CFD
:102EA000FF1CF6CD84819581825491098E9708F09C
:102EB0000BCE8F01045C1F4F8DE190E020E030E0ED
:102EC000A8CCD8014D915C9148515109423151052E
:102ED00010F0CB01A6CC220F331F98CCD90112964B
:102EE0004D915C911397495151094331510508F5B2
:102EF000D701C601880F991FAA1FBB1F6C017D0156
:102F00006894C0F82C5F3F4F2617370709F0F3CDC0
:102F10002EE030E030939B0120939A01C0929601FD
:102F2000D0929701E0929801F09299018FE090E0A1
:102F300090CCD90112964D915C911397495051094B
:102F40004930510508F0E0CDCC0CDD1CEE1CFF1C17
:102F5000D9CF86E0C82ED12CD0929301C092920195
:102F60001ACA87E090E075CC8091E4029091E50266
:102F70000E94F51B8091E20287FD03C060E00C9483
:102F80006C0808951092A5011092A40188EE93E0B8
:102F9000A0E0B0E08093A6019093A701A093A801C0
:102FA000B093A9018BE291E09093A3018093A201D9
:102FB0008FEF9FEF9093AF018093AE018BE391E091
:102FC0009093F3018093F2018091F802811113C074
:102FD0001092F3021092F20289E892E09093F502C7
:102FE0008093F40288E190E09093F7028093F602D8
:102FF00081E08093F8020E945E0A62EF72E00E9414
:10300000410A1092F7011092F60181E491E0909349
:10301000F5018093F40180910603811113C0109291
:1030200001031092000381EA92E0909303038093DE
:1030300002038BE390E0909305038093040381E007
:10304000809306030E945E0A60E073E00E94410ADA
:103050008FE491E090930102809300028091140329
:10306000811113C010920F0310920E038CED92E0A9
:10307000909311038093100389E190E090931303E0
:103080008093120381E0809314030E945E0A6EE035
:1030900073E00E94410A92E090930B0210920D029D
:1030A0001092DD021092E3021092EA021092EB02FB
:1030B0001092EC021092ED0281E08093E90280937D
:1030C000E6021092E7029093E8028093DC0288E423
:1030D00090E09093E1028093E0020E94601B909345
:1030E000E5028093E402009761F028E4FC0111926C
:1030F0002A95E9F788E190E09093DF028093DE0261
:1031000008C01092E1021092E0021092DF021092C9
:10311000DE0289E08093E2028091DD02882341F0A3
:1031200061E089E00E946C0860E089E00E943C0850
:10313000EBE2F3E0E491F0E0EE0FFF1FEC5EFC4FFA
:10314000859194919093EF028093EE02EEEFF2E07E
:10315000E491E093F0020895DB018F939F930E9426
:10316000D618BF91AF91A29F800D911DA39F900D86
:10317000B29F900D11240895AA1BBB1B51E107C0FB
:10318000AA1FBB1FA617B70710F0A61BB70B881FF7
:10319000991F5A95A9F780959095BC01CD01089586
:1031A000EE0FFF1F0590F491E02D09940E9418196D
:1031B000A59F900DB49F900DA49F800D911D11248B
:1031C00008950F93083090F0982F872F762F652F52
:1031D000542F432F322F22270850F4CF220F331FB2
:1031E000441F551F661F771F881F991F0A95B2F746
:1031F0000F91089597FB10F8169400080F9308306C
:1032000098F00850232F342F452F562F672F782FF3
:10321000892F902DF4CF059497958795779567958D
:1032200057954795379527950A95AAF70F910895D1
:10323000A29FB001B39FC001A39F700D811D1124F7
:10324000911DB29F700D811D1124911D089550583C
:10325000BB27AA270E943F190C94B91A0E94AB1AE7
:1032600038F00E94B21A20F039F49F3F19F426F486
:103270000C94A81A0EF4E095E7FB0C94A21AE92F1F
:103280000E94CA1A58F3BA17620773078407950792
:1032900020F079F4A6F50C94EC1A0EF4E0950B2EC0
:1032A000BA2FA02D0B01B90190010C01CA01A00198
:1032B0001124FF27591B99F0593F50F4503E68F1F3
:1032C0001A16F040A22F232F342F4427585FF3CF34
:1032D000469537952795A795F0405395C9F77EF405
:1032E0001F16BA0B620B730B840BBAF09150A1F04E
:1032F000FF0FBB1F661F771F881FC2F70EC0BA0FD4
:10330000621F731F841F48F4879577956795B7955B
:10331000F7959E3F08F0B0CF9395880F08F0992756
:10332000EE0F9795879508950E947E1A08F481E024
:1033300008950E94AD190C94B91A0E94B21A58F05F
:103340000E94AB1A40F029F45F3F29F00C94A21AB6
:1033500051110C94ED1A0C94A81A0E94CA1A68F321
:103360009923B1F3552391F3951B550BBB27AA273E
:1033700062177307840738F09F5F5F4F220F331F78
:10338000441FAA1FA9F335D00E2E3AF0E0E832D040
:1033900091505040E695001CCAF72BD0FE2F29D043
:1033A000660F771F881FBB1F261737074807AB0715
:1033B000B0E809F0BB0B802DBF01FF2793585F4F8A
:1033C0003AF09E3F510578F00C94A21A0C94ED1A35
:1033D0005F3FE4F3983ED4F3869577956795B7956C
:1033E000F7959F5FC9F7880F911D9695879597F977
:1033F0000895E1E0660F771F881FBB1F62177307F0
:103400008407BA0720F0621B730B840BBA0BEE1F04
:1034100088F7E09508950E94121A6894B1110C94EF
:10342000ED1A08950E94D21A88F09F5798F0B92F8C
:103430009927B751B0F0E1F0660F771F881F991FE9
:103440001AF0BA95C9F714C0B13091F00E94EC1A85
:10345000B1E008950C94EC1A672F782F8827B85F95
:1034600039F0B93FCCF3869577956795B395D9F741
:103470003EF490958095709561957F4F8F4F9F4F4B
:103480000895E89409C097FB3EF490958095709557
:1034900061957F4F8F4F9F4F9923A9F0F92F96E9A0
:1034A000BB279395F695879577956795B795F11115
:1034B000F8CFFAF4BB0F11F460FF1BC06F5F7F4FB2
:1034C0008F4F9F4F16C0882311F096E911C07723C4
:1034D00021F09EE8872F762F05C0662371F096E8CD
:1034E000862F70E060E02AF09A95660F771F881F9C
:1034F000DAF7880F9695879597F90895990F000840
:10350000550FAA0BE0E8FEEF16161706E807F907B5
:10351000C0F012161306E407F50798F0621B730B50
:10352000840B950B39F40A2661F0232B242B252BD1
:1035300021F408950A2609F4A140A6958FEF811D74
:10354000811D089597F99F6780E870E060E0089515
:103550009FEF80EC089500240A94161617061806AB
:103560000906089500240A94121613061406050687
:103570000895092E0394000C11F4882352F0BB0F18
:1035800040F4BF2B11F460FF04C06F5F7F4F8F4F7B
:103590009F4F089557FD9058440F551F59F05F3FB6
:1035A00071F04795880F97FB991F61F09F3F79F065
:1035B00087950895121613061406551FF2CF4695E7
:1035C000F1DF08C0161617061806991FF1CF869569
:1035D0007105610508940895E894BB27662777274D
:1035E000CB0197F908950E94061B0C94B91A0E940A
:1035F000AB1A38F00E94B21A20F0952311F00C9407
:10360000A21A0C94A81A11240C94ED1A0E94CA1A3A
:1036100070F3959FC1F3950F50E0551F629FF00125
:10362000729FBB27F00DB11D639FAA27F00DB11D3E
:10363000AA1F649F6627B00DA11D661F829F2227C7
:10364000B00DA11D621F739FB00DA11D621F839F4E
:10365000A00D611D221F749F3327A00D611D231F24
:10366000849F600D211D822F762F6A2F11249F5772
:1036700050409AF0F1F088234AF0EE0FFF1FBB1F75
:10368000661F771F881F91505040A9F79E3F510534
:1036900080F00C94A21A0C94ED1A5F3FE4F3983E6C
:1036A000D4F3869577956795B795F795E7959F5FDE
:1036B000C1F7FE2B880F911D9695879597F9089570
:1036C000CF93DF938230910510F482E090E0E09197
:1036D0001E03F0911F0320E030E0C0E0D0E03097FF
:1036E00011F14081518148175907C0F04817590717
:1036F00061F482819381209719F09B838A832BC088
:1037000090931F0380931E0326C02115310519F0E5
:103710004217530718F49A01BE01DF01EF0102803E
:10372000F381E02DDCCF2115310509F1281B390B80
:103730002430310590F412968D919C911397611568
:10374000710521F0FB019383828304C090931F03D2
:1037500080931E03FD01329644C0FD01E20FF31F6A
:1037600081939193225031092D933C933AC020913B
:103770001C0330911D03232B41F42091170130913C
:10378000180130931D0320931C03209115013091E3
:1037900016012115310541F42DB73EB740911901AD
:1037A00050911A01241B350BE0911C03F0911D036D
:1037B000E217F307A0F42E1B3F0B2817390778F008
:1037C000AC014E5F5F4F2417350748F04E0F5F1F67
:1037D00050931D0340931C038193919302C0E0E03A
:1037E000F0E0CF01DF91CF9108950F931F93CF9316
:1037F000DF93009709F48CC0FC0132971382128288
:1038000000911E0310911F030115110581F4208101
:103810003181820F931F20911C0330911D032817C3
:10382000390779F5F0931D03E0931C0371C0D801AB
:1038300040E050E0AE17BF0750F412962D913C9136
:103840001397AD012115310509F1D901F3CF9D0180
:10385000DA013383228360817181860F971F82177B
:10386000930769F4EC0128813981260F371F2E5FF9
:103870003F4F318320838A819B8193838283452BB1
:1038800029F4F0931F03E0931E0342C01396FC93A8
:10389000EE931297ED01499159919E01240F351F26
:1038A000E217F30771F480819181840F951F0296CE
:1038B00011969C938E938281938113969C938E9301
:1038C0001297E0E0F0E0D80112968D919C91139749
:1038D000009719F0F8018C01F6CF8D919C91980119
:1038E0002E5F3F4F820F931F20911C0330911D03C9
:1038F0002817390769F4309729F410921F031092A2
:103900001E0302C01382128210931D0300931C0336
:10391000DF91CF911F910F91089581E090E0F8948D
:103920000C94991CDC0101C06D9341505040E0F7AC
:10393000089511E0C2EAD1E004C0FE010E94D0184F
:0C3940002196C33AD107C9F7F894FFCFD5
:10394C00330000C18081000000FFFFFFFF00E10099
:10395C000000000000000020038000000000005563
:10396C0003D80398037C0300000000DD02AD09FEC0
:10397C00026F054B05F30200000000D00A000000A6
:10398C000020056C022704E10A360400000000F058
:06399C000A090002000010
:2070000055C000006EC000006CC000006AC0000068C0000066C0000064C0000062C0000043
:2070200060C000005EC00000F2C400005AC0000058C0000056C0000054C0000052C00000EE
:2070400050C0000078C000004CC000004AC0000048C0000046C0000044C0000042C00000BE
:2070600040C000003EC000003CC000003AC0000038C0000036C0000034C0000032C0000048
:2070800030C000002EC000002CC000002AC0000028C0000026C0000024C0000022C00000A8
:2070A00020C000001EC000001CC0000011241FBECFEFDAE0DEBFCDBF11E0A0E0B1E0E2E3BC
:2070C000FFE702C005900D92A83AB107D9F711E0A8EAB1E001C01D92AE3BB107E1F78FD30B
:2070E00026C78ECFF89410926F0010928100109285001092840081E085BF15BE47985D98ED
:2071000028980C94000008952091B2013091B3012F5F3F4F3093B3012093B201932F37FFA8
:2071200003C08EEF831B982F990F921710F447980895479A08951F920F920FB60F9211246E
:207140002F938F939F93EF93FF9310928500109284008091A8019091A901009741F00197D3
:207160009093A9018093A801892B09F45D988091AA019091AB01009741F001979093AB0128
:207180008093AA01892B09F42898E0E0F0E0859194918F5F9F4F49F08091AC019091AD0153
:2071A00001969093AD018093AC01FF91EF919F918F912F910F900FBE0F901F90189584E0BC
:2071C0008093E9000DC08091E8008B778093E80003C08EB3882351F08091E80082FFF9CFBE
:2071E0008091E80085FFEFCF8091F1000895982F83E08093E9008091E80085FD0DC0809136
:20720000E8008E778093E80003C08EB3882369F08091E80080FFF9CF9093F1005D9A84E6C9
:2072200090E09093A9018093A80108954F925F926F927F928F929F92AF92BF92CF92DF921E
:20724000EF92FF920F931F93CF93DF9384E08093E9008091E80082FF57C2289A84E690E065
:207260009093AB018093AA01AADF182F853481F48CE49DE19093AD018093AC0107B600FC4B
:20728000FDCFF999FECF81E180935700E89503C0843519F494DF8DE00DC28C34E1F38035F9
:2072A000D1F3843721F484E4A2DF80E003C2813611F489E5FFC18134B1F481DF182F7FDFE3
:2072C00090E0880F991FAA2797FDA095BA2F312F330F20E0442737FD4095542F822B932B68
:2072E000A42BB52BB8C1803711F483E5E3C1833549F4C0E0D1E089917ADF21E0C730D20714
:20730000D1F7D9C1863521F481E371DF80E3D2C1833731F487E86BDF85E969DF8EE1CAC149
:207320008536B9F4E0E0F0E093E085E090935700E89507B600FCFDCF80935700E89507B65D
:2073400000FCFDCFE058FF4FA0E7E030FA0771F7A2CF823739F4E1E0F0E089E08093570024
:207360008491A8C1863439F4E0E0F0E089E08093570084919FC18E3439F4E3E0F0E089E0E5
:2073800080935700849196C1813539F4E2E0F0E089E08093570084918DC1823631F489E521
:2073A00026DF80E024DF80E885C1823419F0873609F0E5C01092AD011092AC0100DF082FE8
:2073C000FEDEF82EFCDE682E8554823008F071C1902F80E0CF2DD0E0C82BD92B10926F00B3
:2073E000173609F04BC081E180935700E895DD24CC24C3943FC0E090AE01F090AF010091CC
:20740000B0011091B101B6E46B16D9F4ED2DF0E0EE29FF29E4918E2FEADEDD2081F082E08D
:2074200090E0A0E0B0E0E80EF91E0A1F1B1FE092AE01F092AF010093B0011093B101DC2470
:2074400018C0D801C701B695A7959795879559D5CEDE82E090E0A0E0B0E0E80EF91E0A1FF2
:207460001B1FE092AE01F092AF010093B0011093B1012197209709F0BECF7DC08090AE01F5
:207480009090AF01A090B001B090B10196E4691609F05DC083E0F40180935700E89507B63E
:2074A00000FCFDCF54C0F6E46F1661F5772031F1E090AE01F090AF010091B0011091B1019E
:2074C0007EDED82ECC24852D90E08C299D29F7010C0140925700E895112482E090E0A0E08B
:2074E000B0E0E80EF91E0A1F1B1FE092AE01F092AF010093B0011093B10102C060DE582E1A
:20750000742423C0E090AE01F090AF010091B0011091B10116950795F794E79450DE682FFA
:20752000C701F7D48091AE019091AF01A091B001B091B1010296A11DB11D8093AE01909349
:20754000AF01A093B001B093B101219704C05524772444244394209709F0A5CF96E46916B6
:2075600041F485E0F40180935700E89507B600FCFDCF8DE03CDE82E080936F009CC0833492
:2075800071F40091AE011091AF0119DE90E021E0F8010C0120935700E89511247CCE8336C8
:2075A00019F5E090AE01F090AF010091B0011091B10105DEF701E16090E021E00C0120938C
:2075C0005700E895112482E090E0A0E0B0E0E80EF91E0A1F1B1FE092AE01F092AF0100936A
:2075E000B0011093B10157CE8D3661F4E091AE01F091AF0185E080935700E89507B600FCF2
:20760000FDCF49CE823551F4E091AE01F091AF0105911491812FEBDD802F4CC0843421F5FE
:20762000E090AE01F090AF010091B0011091B10116950795F794E794C2DD682FC70169D4DE
:207640008091AE019091AF01A091B001B091B1010296A11DB11D8093AE019093AF01A093D8
:20766000B001B093B10117CE843609F5E090AE01F090AF010091B0011091B101D801C70142
:20768000B695A795979587953CD4B1DD82E090E0A0E0B0E0E80EF91E0A1F1B1FE092AE010A
:2076A000F092AF010093B0011093B10104C08B3111F08FE39CDD83E08093E9009091E8002B
:2076C0008091E8008E778093E80095FF04C010C08EB38823C9F08091E80080FFF9CF809193
:2076E000E8008E778093E80003C08EB3882361F08091E80080FFF9CF84E08093E9008091F1
:20770000E8008B778093E800DF91CF911F910F91FF90EF90DF90CF90BF90AF909F908F90AC
:207720007F906F905F904F9008959091B601892F8F77813249F58091B7018032A1F081328A
:2077400019F5913A09F58091E800877F8093E8008DE091E067E070E00BD28091E8008B770B
:207760008093E8000895913279F48091E800877F8093E8008DE091E067E070E05DD2809192
:20778000E8008E778093E800089582E061EC42E0B5D083E061E842E1B1D084E060E842E1EF
:2077A000ADC084B7877F84BF88E10FB6F89480936000109260000FBE20E880E090E00FB63F
:2077C000F89420936100809361000FBE81E085BF92E095BF3F9A209A559AE1E6F0E02083A1
:2077E000108247985D982898109289008AEF8093880090936F0083E080938100F0C040911A
:20780000000850910108109201081092000894B714BE88E10FB6F8948093600010926000D5
:207820000FBE292F30E0F901E270F07091FD18C090FF05C0859194918F5F9F4F81F423FFFF
:207840000FC08091090190910A014817590741F0E0E0F0E0859194918F5F9F4F09F042DC64
:20786000A0DF78941092AD011092AC010CC0DEDC36D38091AC019091AD0181549F4110F00D
:207880001092140141DC80911401882381F78091E00081608093E00025DC80E090E0089598
:2078A000FA01923049F0933061F09130F9F485E191E022E130E01EC087E291E02EE330E04D
:2078C00019C0882329F485E691E024E030E012C0813029F489E691E022E230E00BC0823006
:2078E00029F48DE891E028E130E004C080E090E020E030E091838083C90108958093E9004E
:207900008091EB0081608093EB001092ED006093EC004093ED008091EE00881F8827881F62
:2079200008958091B60188238CF403C08EB38823B1F08091E80082FFF9CF8091E8008B772A
:207940008093E80008958EB3882349F08091E80080FFF9CF8091E8008E778093E800089594
:20796000EF92FF920F931F9345D04CD008ED10E0F80180818F77808380818068808380819B
:207980008F7D808319BC1EBA1092B40180EEE82EF12CF70180818B7F8083F8018081816052
:2079A000808380E060E042E0A9DFE1EEF0E080818E7F8083E2EEF0E0808181608083808144
:2079C00088608083F70180818E7F8083F8018081806180831F910F91FF90EF900895E7ED06
:2079E000F0E08081816080838AE482BF81E08093B501B6CFE8EDF0E080818E7F808310921C
:207A0000E20008951092DA001092E10008951F920F920FB60F9211242F933F934F935F93F6
:207A20006F937F938F939F93AF93BF93EF93FF938091DA0080FF1BC08091D80080FF17C0B2
:207A40008091DA008E7F8093DA008091D90080FF0BC080E189BD82E189BD09B400FEFDCF36
:207A600081E08EBB3BD203C019BC1EBA37D28091E10080FF17C08091E20080FF13C0809138
:207A8000E2008E7F8093E2008091E20080618093E2008091D80080628093D80019BC85E049
:207AA0008EBB1CD28091E10084FF2CC08091E20084FF28C080E189BD82E189BD09B400FEC5
:207AC000FDCF8091D8008F7D8093D8008091E1008F7E8093E1008091E2008F7E8093E20012
:207AE0008091E20081608093E2008091B401882331F48091E30087FD02C081E001C084E067
:207B00008EBBECD18091E10083FF21C08091E20083FF1DC08091E100877F8093E10082E06A
:207B20008EBB1092B4018091E1008E7F8093E1008091E2008E7F8093E2008091E2008061E9
:207B40008093E20080E060E042E0D8DEC7D1FF91EF91BF91AF919F918F917F916F915F9130
:207B60004F913F912F910F900FBE0F901F9018959C014091BC015091BD014617570718F49D
:207B8000F90190E044C06115710511F0AB01F8CF8091E8008E778093E80040E050E0F0CF0F
:207BA0008EB3882309F444C0853009F443C08091E80083FF02C081E008958091E80082FD70
:207BC00031C08091E80080FF22C08091F3009091F200782F60E0292F30E0262B372B07C07A
:207BE00081918093F100415050402F5F3F4F4115510519F02830310598F390E02830310566
:207C000009F491E08091E8008E778093E8004115510531F6992321F605C08EB3882341F075
:207C2000853041F08091E80082FFF7CF80E0089582E0089583E008959C016115710529F47C
:207C40008091E8008B778093E800F90126C08EB3882391F1853091F18091E80083FF02C06C
:207C600081E008958091E80082FFF1CF06C08091F10081936150704059F02091F300809191
:207C8000F200322F20E090E0822B932B892B79F78091E8008B778093E80061157105B9F601
:207CA00005C08EB3882341F0853041F08091E80080FFF7CF80E0089582E0089583E00895C2
:207CC0000F931F93DF93CF9300D0CDB7DEB7E6EBF1E08091F100819381E0EE3BF807C9F792
:207CE00024DD8091E80083FFE4C08091B6019091B701953009F46DC0963040F4913081F1A7
:207D0000913070F0933009F0D4C02AC0983009F4A3C0993009F4B2C0963009F0CAC07CC023
:207D2000803809F4C6C0823809F0C3C08091BA0187708093E9008091EB001092E9002091DB
:207D4000E800277F2093E80090E025E0969587952A95E1F781708093F1001092F10087C0D8
:207D6000882319F0823009F0A4C08F71823009F0A0C08091B801882331F52091BA01277097
:207D800009F497C02093E9008091EB0080FF1BC0933021F48091EB00806213C08091EB0018
:207DA00080618093EB0081E090E002C0880F991F2A95E2F78093EA001092EA008091EB00E5
:207DC00088608093EB001092E9008091E800877F51C0882309F06DC01091B8011F770FB79B
:207DE000F8948091E800877F8093E8009ADD8091E80080FFFCCF8091E3008078812B809398
:207E0000E30080688093E300112311F482E001C083E08EBB0FBF4DC08058823008F049C033
:207E20008091B8019091B9016091BA01AE014F5F5F4F36DDBC01009709F43BC08091E8008E
:207E4000877F8093E80089819A8192DE8091E8008B778093E8002DC0803859F58091E800AA
:207E6000877F8093E8008091B4018093F1008091E8008E778093E80054DD1BC08823C9F4CA
:207E80009091B8019230A8F48091E800877F8093E8009093B40145DD8091B401882331F420
:207EA0008091E30087FD02C081E001C084E08EBB6CDC8091E80083FF0AC08091EB0080624E
:207EC0008093EB008091E800877F8093E8000F900F90CF91DF911F910F91089508951F9360
:207EE0008EB3882361F01091E9001092E9008091E80083FF01C0E4DE17701093E9001F916F
:207F00000895F999FECF92BD81BDF89A992780B50895262FF999FECF1FBA92BD81BD20BDBD
:207F20000FB6F894FA9AF99A0FBE01960895F894FFCF4341544552494E4100777700080031
:207F40000000000000080112011001020000084123370001000201000109023E00020100FE
:207F600080320904000001020201000524001001042402040524060001070582030800FF0C
:207F800009040100020A000000070504021000010705830210000104030904220341007216
:207FA000006400750069006E006F0020004D006900630072006F0020002000200000001810
:1A7FC00003410072006400750069006E006F0020004C004C004300000000D7
:00000001FF
